:020000040000FA
:1000000050200020150400009F0500006905000035
:100010009D050000F1040000E5090000000000005B
:10002000000000000000000000000000A305000028
:100030002904000000000000A10500002D040000BC
:100040002F0400002F040000590800002F040000B6
:100050002F0400002F0400002F0400002F040000D4
:100060002F0400002F0400002F0400002F040000C4
:100070002F0400002F0400002F0400002F040000B4
:100080002F0400002F0400002F0400002F040000A4
:100090002F0400002F0400002F0400002F04000094
:1000A0002F0400002F0400002F0400002F04000084
:1000B0002F0400002F0400000000000000000000DA
:1000C0002F0400002F0400002F0400002F04000064
:1000D0002F0400002F0400002F0400000000000087
:1000E0000000000000000000000000000000000010
:1000F0000000000000000000000000000000000000
:1001000000000000000000000000000000000000EF
:1001100000000000000000000000000000000000DF
:10040000DFF80CD000F02EF800480047C10B0000C8
:10041000502000200648804706480047FEE7FEE7D8
:10042000FEE7FEE7FEE7FEE7FEE7FEE7FEE7FEE7A4
:10043000250600000104000030B50B4601460020EF
:100440002022012409E021FA02F59D4205D303FA96
:1004500002F5491B04FA02F52844151EA2F1010217
:10046000F1DC30BD064C074D06E0E06840F00103CA
:1004700094E8070098471034AC42F6D3FFF7C4FF66
:10048000AC0D0000CC0D000000F034B81CB5062007
:1004900000F077FC072000F074FC082000F071FCED
:1004A00000230B2000931A461946019300F03CFCF0
:1004B00003484021016080210160490001601CBDAA
:1004C00008050050044910B5886100F06BF8BDE8DC
:1004D000104002A000F088BA080000200D0A48650C
:1004E0006C6C6F20576F726C64210D0A0D0A00004E
:1004F000FEE7000003480121016041608160C160A6
:1005000000F002B83800002010B501224468002332
:100510009107012C05D04A60C468012C11D0CA6033
:1005200010BD0468012C04D0C1F80420C1F80031CA
:10053000F2E7C1F800310A60D1F80041012CFBD18B
:10054000F4E7007A074C00F003002060C1F80431A2
:10055000C1F80820D1F804010128FBD1C1F8043109
:1005600010BD000018050040FEE7000010B500F0C7
:1005700037F808490A6882F080020A600D2803D023
:10058000BDE8104000F03EB8BDE8104002A000F009
:100590002BBA0000040500500D0A0000FEE7FEE73C
:1005A000FEE7FEE710B50C4800F065F90A488069DF
:1005B00060B101220421084800F08FF9074920208A
:1005C00081F800040420891EC1F80001BDE8104034
:1005D0000121014800F046B90800002002E000E0D7
:1005E00008B56946024800F081F99DF8000008BD91
:1005F0000800002013460A460146014800F084B96D
:100600000800002001B56946014800F0A7F908BDBF
:100610000800002013460A460146014800F0ACB924
:1006200008000020F0B581480023021D0178012652
:10063000101D4FF08055062907D11478240704D1E6
:100640000478C4F30314032C02D0062904D00FE06D
:10065000784F774C7C670EE01478240708D1047833
:10066000C4F30314032C06D0042C04D0052C02D0B0
:10067000062907D00EE0D5F844426F4FC4F3423448
:100680003C6002E01478240704D10478C4F3031416
:10069000032C02D0062906D011E0684C276827F009
:1006A000807727600EE01478240708D10478C4F31B
:1006B0000314032C06D0042C04D0052C02D00629E8
:1006C0000AD011E04FF08044C4F80C31C4F8103166
:1006D000594C241F236002E01478240704D10478C5
:1006E000C4F30314032C02D0062905D00CE0524FAA
:1006F000032464373C600AE01478240704D10478AA
:10070000C4F30314032C02D006290DD014E04C4F7F
:1007100005243C604A4C78342660494C08342360F8
:100720003F23241F236002E013781B0704D10378C2
:10073000C3F30313052B02D0062957D068E04149C3
:100740000968414A11603F49091D0968121D11607D
:100750003C4908310968121D11603A490C31096899
:10076000121D1160374910310968121D1160354999
:1007700014310968121D1160324918310968324A72
:10078000203211602F491C310968121D11602D495A
:1007900020310968121D11602A4924310968121D8F
:1007A0001160284928310968121D116025492C3132
:1007B0000968121D1160234930310968224A40320C
:1007C0001160204934310968121D11601D4938310A
:1007D0000968121D11601B493C310968121D116026
:1007E000184940310968121D116002E011780907AB
:1007F0000ED10078C0F30310032803D0042801D0E1
:10080000052805D1D5F85802104900F04F000860BE
:100810000A487438016841F470010160BFF34F8FDA
:10082000BFF36F8F0B490A480860F0BDE00F00F07E
:100830000DF0ADBA00C007403C050040FCED00E003
:10084000105600400404001020C50040E40E004093
:100850000090D00304000020014880690047000098
:10086000080000200068012901D0002100E00421D7
:10087000C0F80015704710B50446007900F08BFAF7
:100880006079002100F074FA21682079C1F80C0524
:1008900021686079C1F81405E06801280ED1A079BB
:1008A00000F079FAE079002100F062FA2168E0793D
:1008B000C1F810052168A079C1F80805D4E9020142
:1008C00008432168C1F86C0521682069C1F8240536
:1008D0002046BDE8104000F078B80068012A02D038
:1008E000C0F808137047C0F804137047D0F8002010
:1008F000D2F80831012BFBD10023C2F8083100687F
:10090000D0F81805087070472DE9F0411F461446CD
:100910000E00054607D000202CB180462046641EFC
:1009200008D2BDE8F0810120FBE77F1E10D0012036
:1009300000F031F92868D0F808010128F5D12968BC
:10094000C1F808812868D0F8180506F8010BE5E71A
:100950002968C1F808810320E3E7000002680978EC
:10096000C2F81C15D0F80000D0F81C110129FBD1E9
:100970000021C0F81C1170472DE9F0411F461546B3
:100980000E0004460BD000204DB1804628466D1E57
:1009900006D3216816F8010BC1F81C0507E00120F9
:1009A000BDE8F0817F1E0BD0012000F0F4F8206834
:1009B000D0F81C010128F5D12168C1F81C81E5E7B8
:1009C0002168C1F81C810320EAE702680021C2F80F
:1009D0001C110268C2F808110268012191600068C8
:1009E00001607047FEE700000FB4054B10B503A986
:1009F000044A029800F018F810BC5DF814FB0000DF
:100A0000A10B00002400002002E008C8121F08C14A
:100A1000002AFAD170477047002001E001C1121F7F
:100A2000002AFBD1704700002DE9FF4F89B09B469B
:100A30000446002506E025280BD05A460B9990471E
:100A4000641C6D1C20780028F5D10DB02846BDE847
:100A5000F08F0027B8460122474900E0074314F809
:100A6000013F203B02FA03F00842F7D120782E28FC
:100A700019D114F8010F47F004072A280ED06FF09F
:100A80002F022078A0F1300109290CD808EB880149
:100A900002EB410100EB0108641CF2E70A98641CB8
:100AA00050F8048B0A9020780028CED0642808D013
:100AB000692806D075281ED05A460B9990476D1CA0
:100AC00058E00A994FF00A0901C90A91002802DA90
:100AD00040422D2102E0390504D52B218DF820104C
:100AE000012103E0F90704D02021F7E78A4608AE88
:100AF0000DE00021FAE70A994FF00A0901C90A91AD
:100B0000F7E74946FFF798FC303106F8011D002849
:100B1000F7D1ADEB060000F12009780701D44FF0C2
:100B20000108C84502DDA8EB090000E0002080466E
:100B3000002706E008A85A46C05D0B9990476D1C37
:100B40007F1C5745F6DB04E030205A460B9990474E
:100B50006D1CB8F10001A8F10108F5DC05E016F8FC
:100B6000010B5A460B9990476D1CB9F10001A9F190
:100B70000109F4DC641C65E70928010031B540F285
:100B8000E73404E0401E0090204600F087F800980B
:100B90000028F7D138BD11B4009818BC00F07EB819
:100BA0000649C2B20968C1F81C2500BFD1F81C2152
:100BB000012AFBD10022C1F81C2170470800002047
:100BC000FFF762FCFFF762FC264D2868264C000503
:100BD00036D40020FFF776FC244F254E3A460121FB
:100BE0002448FFF707FD032813D0224800780D287A
:100BF00020681ED080F4807020601F4A01211D48AB
:100C0000FFF708FD28680005E8D51CA0FFF7ECFEFB
:100C1000E4E7206880F040002060317818A0FFF7FA
:100C2000E3FE3078FF2802D0401C3070EAE7002055
:100C3000FBE780F08000206016A0FFF7D5FEE1E71B
:100C40001548FFF73FFC206880F480702060642026
:100C5000FFF794FF02E009A0FFF7C6FE2868000531
:100C6000F1D5F8E7100500500405005020A1070059
:100C7000000000202800002080841E000C000000DE
:100C800054696D656F7574202E2E2E2025640D0A13
:100C9000000000000D0A00006D05000000283ED095
:100CA0001F49204A096800BF00BF00BF00BF00BF46
:100CB00000BF00BF00BF91422FD000BF00BF00BFE8
:100CC00000BF00BF00BF00BF00BF00BF00BF00BF2C
:100CD00000BF00BF00BF00BF00BF00BF00BF00BF1C
:100CE00000BF00BF00BF00BF00BF00BF00BF00BF0C
:100CF00000BF00BF00BF00BF00BF00BF00BF00BFFC
:100D000000BF00BF00BF00BF00BF00BF00BF00BFEB
:100D100000BF00BF00BF00BF00BF0138C3D1704794
:100D2000040000200024F40070B541EA4201DDE92E
:100D300004564FF0A04441EA830141EA052104EB47
:100D4000800041EA0641C0F8001770BD70B541EA65
:100D50004201DDE904564FF0A04441EA830141EA33
:100D6000052104EB800041EA0641C0F8001770BD80
:100D70001CB500220B46009211460192FFF7E6FFD8
:100D80001CBD1CB5002100910B46012201911146AA
:100D9000FFF7CAFF1CBD1CB5002100910B460122C4
:100DA00001911146FFF7D2FF1CBD0000CC0D0000E1
:100DB0000000002028000000080A0000F40D0000D8
:100DC0002800002028200000180A00000000000071
:100DD0000090D003002000400D0C1716000000000A
:100DE000000000000000D60100000000000000002C
:040DF00000000000FF
:0400000500000401F2
:00000001FF
