:020000040000FA
:100000003820002015040000AF050000890500001D
:10001000AD050000110500007D0800000000000093
:100020000000000000000000000000004506000085
:100030002904000000000000B10500002D040000AC
:100040002F0400002F0400002F0400002F040000E4
:100050002F0400002F0400002F0400002F040000D4
:100060002F0400002F0400002F040000B50500003D
:100070002F0400002F0400002F0400002F040000B4
:100080002F0400002F0400002F0400002F040000A4
:100090002F0400002F0400002F0400002F04000094
:1000A0002F0400002F0400002F0400002F04000084
:1000B0002F0400002F0400000000000000000000DA
:1000C0002F0400002F0400002F0400002F04000064
:1000D0002F0400002F0400002F0400000000000087
:1000E0000000000000000000000000000000000010
:1000F0000000000000000000000000000000000000
:1001000000000000000000000000000000000000EF
:1001100000000000000000000000000000000000DF
:10040000DFF80CD000F018F8004800479D08000005
:10041000382000200648804706480047FEE7FEE7F0
:10042000FEE7FEE7FEE7FEE7FEE7FEE7FEE7FEE7A4
:100430004906000001040000064C074D06E0E06894
:1004400040F0010394E8070098471034AC42F6D31B
:10045000FFF7DAFFF00800001009000000F05AB8BA
:100460001CB5062000F03AFA072000F037FA082001
:1004700000F034FA00230B2000931A46194601932A
:1004800000F01AFA03484021016080210160490010
:1004900001601CBD0805005070B504460D461A48A1
:1004A0001849002602C040F28E2180E85200001F49
:1004B00000F0A2F81448322110308560C0E900161F
:1004C0000146103800F09CF824B1012211460E4874
:1004D00000F0A9F825B1012211040B4800F0A3F89F
:1004E0002C4308D00949202081F800044FF0E02176
:1004F0008001C1F80001BDE870400121024800F010
:1005000088B8000000B00040040000200BE000E0CC
:10051000FEE7000003480121016041608160C16085
:1005200000F002B82000002010B50122446800232A
:100530009107012C05D04A60C468012C11D0CA6013
:1005400010BD0468012C04D0C1F80420C1F80031AA
:10055000F2E7C1F800310A60D1F80041012CFBD16B
:10056000F4E7007A074C00F003002060C1F8043182
:10057000C1F80820D1F804010128FBD1C1F80431E9
:1005800010BD000018050040FEE7000002480168A9
:1005900081F0800101607047040500500248016845
:1005A00081F480710160704704050050FEE7FEE7AA
:1005B000FEE7000070B50E4C2068D0F80011002551
:1005C00019B1C0F80051A06880470A4822684FF46A
:1005D000A071436801EB83015358002B07D055509D
:1005E0002268012191608068BDE87040004770BDBD
:1005F000040000201400002003C8C0F8081570474C
:100600000A68496800684FF4A86303EB810142500F
:10061000704701230268012901D05360704793603D
:100620000068036070470068012A05D0D0F80823ED
:100630000A43C0F808237047D0F804230A43C0F8DF
:1006400004237047FEE70000F0B581480023021D37
:1006500001780126101D4FF08055062907D1147826
:10066000240704D10478C4F30314032C02D0062910
:1006700004D00FE0784F774C7C670EE014782407A5
:1006800008D10478C4F30314032C06D0042C04D03E
:10069000052C02D0062907D00EE0D5F844426F4F52
:1006A000C4F342343C6002E01478240704D1047897
:1006B000C4F30314032C02D0062906D011E0684CC1
:1006C000276827F0807727600EE01478240708D188
:1006D0000478C4F30314032C06D0042C04D0052C96
:1006E00002D006290AD011E04FF08044C4F80C3142
:1006F000C4F81031594C241F236002E014782407F9
:1007000004D10478C4F30314032C02D0062905D0C5
:100710000CE0524F032464373C600AE0147824074D
:1007200004D10478C4F30314032C02D006290DD09D
:1007300014E04C4F05243C604A4C78342660494C08
:10074000083423603F23241F236002E013781B0733
:1007500004D10378C3F30313052B02D0062957D025
:1007600068E041490968414A11603F49091D09682B
:10077000121D11603C4908310968121D11603A4987
:100780000C310968121D1160374910310968121DBA
:100790001160354914310968121D11603249183150
:1007A0000968324A203211602F491C310968121D34
:1007B00011602D4920310968121D11602A49243128
:1007C0000968121D1160284928310968121D11603D
:1007D00025492C310968121D1160234930310968FF
:1007E000224A40321160204934310968121D1160DB
:1007F0001D4938310968121D11601B493C310968D7
:10080000121D1160184940310968121D116002E083
:10081000117809070ED10078C0F30310032803D024
:10082000042801D0052805D1D5F85802104900F058
:100830004F0008600A487438016841F47001016093
:10084000BFF34F8FBFF36F8F0B490A480860F0BDAD
:10085000E00F00F00DF0ADBA00C007403C050040CD
:10086000FCED00E0105600400404001020C50040DC
:10087000E40E00400090D00300000020FEE702E0FC
:1008800008C8121F08C1002AFAD17047704700201B
:1008900001E001C1121F002AFBD17047FFF7DEFD06
:1008A000FFF7DEFD02490348FFF7F6FDFEE7000013
:1008B0008D0500009D05000070B541EA4201DDE9AB
:1008C00004564FF0A04441EA830141EA052104EBBC
:1008D000800041EA0641C0F8001770BD1CB5002138
:1008E00000910B46012201911146FFF7E5FF1CBD67
:1008F0001009000000000020040000007E08000035
:100900001409000004000020342000008E080000BC
:040910000090D00380
:0400000500000401F2
:00000001FF
