:020000040000FA
:10000000182000201504000015050000110500004F
:1000100013050000990400005107000000000000D3
:1000200000000000000000000000000019050000B2
:100030002904000000000000170500002D04000046
:100040002F0400002F0400002F0400002F040000E4
:100050002F0400002F0400002F0400002F040000D4
:100060002F0400002F0400002F0400002F040000C4
:100070002F0400002F0400002F0400002F040000B4
:100080002F0400002F0400002F0400002F040000A4
:100090002F0400002F0400002F0400002F04000094
:1000A0002F0400002F0400002F0400002F04000084
:1000B0002F0400002F0400000000000000000000DA
:1000C0002F0400002F0400002F0400002F04000064
:1000D0002F0400002F0400002F0400000000000087
:1000E0000000000000000000000000000000000010
:1000F0000000000000000000000000000000000000
:1001000000000000000000000000000000000000EF
:1001100000000000000000000000000000000000DF
:10040000DFF80CD000F018F8004800478D07000016
:10041000182000200648804706480047FEE7FEE710
:10042000FEE7FEE7FEE7FEE7FEE7FEE7FEE7FEE7A4
:100430001D05000001040000064C074D06E0E068C1
:1004400040F0010394E8070098471034AC42F6D31B
:10045000FFF7DAFFD0080000F008000000F01EB837
:100460001CB5062000F02AFA072000F027FA082021
:1004700000F024FA00230B2000931A46194601933A
:1004800000F00AFA03484021016080210160490020
:1004900001601CBD08050050FEE700000348012173
:1004A000016041608160C16000F002B8040000207A
:1004B00010B50122446800239107012C05D04A6041
:1004C000C468012C11D0CA6010BD0468012C04D08E
:1004D000C1F80420C1F80031F2E7C1F800310A6028
:1004E000D1F80041012CFBD1F4E7007A074C00F071
:1004F00003002060C1F80431C1F80820D1F80401DC
:100500000128FBD1C1F8043110BD000018050040DE
:10051000FEE7FEE7FEE7FEE7FEE70000F0B58148F4
:100520000023021D01780126101D4FF08055062979
:1005300007D11478240704D10478C4F30314032CDE
:1005400002D0062904D00FE0784F774C7C670EE08C
:100550001478240708D10478C4F30314032C06D0BC
:10056000042C04D0052C02D0062907D00EE0D5F8C3
:1005700044426F4FC4F342343C6002E014782407D5
:1005800004D10478C4F30314032C02D0062906D046
:1005900011E0684C276827F0807727600EE0147818
:1005A000240708D10478C4F30314032C06D0042CC8
:1005B00004D0052C02D006290AD011E04FF0804467
:1005C000C4F80C31C4F81031594C241F236002E0E8
:1005D0001478240704D10478C4F30314032C02D044
:1005E000062905D00CE0524F032464373C600AE032
:1005F0001478240704D10478C4F30314032C02D024
:1006000006290DD014E04C4F05243C604A4C783448
:100610002660494C083423603F23241F236002E0F6
:1006200013781B0704D10378C3F30313052B02D0FF
:10063000062957D068E041490968414A11603F499D
:10064000091D0968121D11603C4908310968121D15
:1006500011603A490C310968121D11603749103197
:100660000968121D1160354914310968121D1160A5
:10067000324918310968324A203211602F491C3141
:100680000968121D11602D4920310968121D116081
:100690002A4924310968121D116028492831096846
:1006A000121D116025492C310968121D1160234962
:1006B00030310968224A40321160204934310968DA
:1006C000121D11601D4938310968121D11601B4946
:1006D0003C310968121D1160184940310968121D2A
:1006E000116002E0117809070ED10078C0F3031001
:1006F000032803D0042801D0052805D1D5F85802D5
:10070000104900F04F0008600A487438016841F44D
:1007100070010160BFF34F8FBFF36F8F0B490A4821
:100720000860F0BDE00F00F00DF0ADBA00C007406A
:100730003C050040FCED00E01056004004040010B1
:1007400020C50040E40E00400090D00300000020CF
:10075000FEE702E008C8121F08C1002AFAD170475C
:100760007047002001E001C1121F002AFBD1704731
:1007700031B540F2E73404E0401E0090204600F01E
:1007800045F800980028F7D138BD0000FFF766FE55
:10079000FFF766FEDFF870A040250AF1040404F1BB
:1007A00004084FF0800BAF0008F10409DAF80000EC
:1007B000564680F04000CAF800005020FFF7D8FFEE
:1007C000306880F0800030605020FFF7D1FF306843
:1007D00080F4807030605020FFF7CAFF5E460EE064
:1007E0002560266027606420FFF7C2FFC8F800502C
:1007F000C8F80060C8F800706420FFF7B9FFD9F8A6
:1008000000000005D2D5EBE70405005000283ED0DB
:100810001F49204A096800BF00BF00BF00BF00BFDA
:1008200000BF00BF00BF91422FD000BF00BF00BF7C
:1008300000BF00BF00BF00BF00BF00BF00BF00BFC0
:1008400000BF00BF00BF00BF00BF00BF00BF00BFB0
:1008500000BF00BF00BF00BF00BF00BF00BF00BFA0
:1008600000BF00BF00BF00BF00BF00BF00BF00BF90
:1008700000BF00BF00BF00BF00BF00BF00BF00BF80
:1008800000BF00BF00BF00BF00BF0138C3D1704729
:10089000000000200024F40070B541EA4201DDE9C7
:1008A00004564FF0A04441EA830141EA052104EBDC
:1008B000800041EA0641C0F8001770BD1CB5002158
:1008C00000910B46012201911146FFF7E5FF1CBD87
:1008D000F0080000000000200400000052070000A3
:1008E000F40800000400002014200000620700004B
:0408F0000090D003A1
:0400000500000401F2
:00000001FF
